{
  "contractName": "DonorContract",
  "abi": [
    {
      "inputs": [
        {
          "internalType": "string",
          "name": "",
          "type": "string"
        }
      ],
      "name": "transplantMap",
      "outputs": [
        {
          "internalType": "string",
          "name": "D_name",
          "type": "string"
        },
        {
          "internalType": "string",
          "name": "P_name",
          "type": "string"
        },
        {
          "internalType": "string",
          "name": "D_medical_id",
          "type": "string"
        },
        {
          "internalType": "string",
          "name": "P_medical_id",
          "type": "string"
        },
        {
          "internalType": "string",
          "name": "D_blood_type",
          "type": "string"
        },
        {
          "internalType": "string",
          "name": "P_blood_type",
          "type": "string"
        },
        {
          "internalType": "string",
          "name": "Transplant_id",
          "type": "string"
        }
      ],
      "stateMutability": "view",
      "type": "function",
      "constant": true
    },
    {
      "inputs": [
        {
          "internalType": "string",
          "name": "_fullname",
          "type": "string"
        },
        {
          "internalType": "uint256",
          "name": "_age",
          "type": "uint256"
        },
        {
          "internalType": "string",
          "name": "_gender",
          "type": "string"
        },
        {
          "internalType": "string",
          "name": "_medical_id",
          "type": "string"
        },
        {
          "internalType": "string",
          "name": "_blood_type",
          "type": "string"
        },
        {
          "internalType": "string[]",
          "name": "_organ",
          "type": "string[]"
        },
        {
          "internalType": "uint256",
          "name": "_weight",
          "type": "uint256"
        },
        {
          "internalType": "uint256",
          "name": "_height",
          "type": "uint256"
        }
      ],
      "name": "setPledge",
      "outputs": [],
      "stateMutability": "nonpayable",
      "type": "function"
    },
    {
      "inputs": [
        {
          "internalType": "string",
          "name": "_fullname",
          "type": "string"
        },
        {
          "internalType": "uint256",
          "name": "_age",
          "type": "uint256"
        },
        {
          "internalType": "string",
          "name": "_gender",
          "type": "string"
        },
        {
          "internalType": "string",
          "name": "_medical_id",
          "type": "string"
        },
        {
          "internalType": "string",
          "name": "_blood_type",
          "type": "string"
        },
        {
          "internalType": "string[]",
          "name": "_organ",
          "type": "string[]"
        },
        {
          "internalType": "uint256",
          "name": "_weight",
          "type": "uint256"
        },
        {
          "internalType": "uint256",
          "name": "_height",
          "type": "uint256"
        }
      ],
      "name": "setDonors",
      "outputs": [],
      "stateMutability": "nonpayable",
      "type": "function"
    },
    {
      "inputs": [
        {
          "internalType": "string",
          "name": "_fullname",
          "type": "string"
        },
        {
          "internalType": "uint256",
          "name": "_age",
          "type": "uint256"
        },
        {
          "internalType": "string",
          "name": "_gender",
          "type": "string"
        },
        {
          "internalType": "string",
          "name": "_medical_id",
          "type": "string"
        },
        {
          "internalType": "string",
          "name": "_blood_type",
          "type": "string"
        },
        {
          "internalType": "string[]",
          "name": "_organ",
          "type": "string[]"
        },
        {
          "internalType": "uint256",
          "name": "_weight",
          "type": "uint256"
        },
        {
          "internalType": "uint256",
          "name": "_height",
          "type": "uint256"
        }
      ],
      "name": "setPatients",
      "outputs": [],
      "stateMutability": "nonpayable",
      "type": "function"
    },
    {
      "inputs": [
        {
          "internalType": "string",
          "name": "_D_name",
          "type": "string"
        },
        {
          "internalType": "string",
          "name": "_P_name",
          "type": "string"
        },
        {
          "internalType": "string",
          "name": "_D_medical_id",
          "type": "string"
        },
        {
          "internalType": "string",
          "name": "_P_medical_id",
          "type": "string"
        },
        {
          "internalType": "string",
          "name": "_D_blood_type",
          "type": "string"
        },
        {
          "internalType": "string",
          "name": "_P_blood_type",
          "type": "string"
        },
        {
          "internalType": "string[]",
          "name": "_organ",
          "type": "string[]"
        },
        {
          "internalType": "string",
          "name": "_Transplant_id",
          "type": "string"
        }
      ],
      "name": "setTransplant",
      "outputs": [],
      "stateMutability": "nonpayable",
      "type": "function"
    },
    {
      "inputs": [
        {
          "internalType": "string",
          "name": "_medical_id",
          "type": "string"
        }
      ],
      "name": "getPledge",
      "outputs": [
        {
          "internalType": "string",
          "name": "",
          "type": "string"
        },
        {
          "internalType": "uint256",
          "name": "",
          "type": "uint256"
        },
        {
          "internalType": "string",
          "name": "",
          "type": "string"
        },
        {
          "internalType": "string",
          "name": "",
          "type": "string"
        },
        {
          "internalType": "string[]",
          "name": "",
          "type": "string[]"
        },
        {
          "internalType": "uint256",
          "name": "",
          "type": "uint256"
        },
        {
          "internalType": "uint256",
          "name": "",
          "type": "uint256"
        }
      ],
      "stateMutability": "view",
      "type": "function",
      "constant": true
    },
    {
      "inputs": [
        {
          "internalType": "string",
          "name": "_medical_id",
          "type": "string"
        }
      ],
      "name": "getDonor",
      "outputs": [
        {
          "internalType": "string",
          "name": "",
          "type": "string"
        },
        {
          "internalType": "uint256",
          "name": "",
          "type": "uint256"
        },
        {
          "internalType": "string",
          "name": "",
          "type": "string"
        },
        {
          "internalType": "string",
          "name": "",
          "type": "string"
        },
        {
          "internalType": "string[]",
          "name": "",
          "type": "string[]"
        },
        {
          "internalType": "uint256",
          "name": "",
          "type": "uint256"
        },
        {
          "internalType": "uint256",
          "name": "",
          "type": "uint256"
        }
      ],
      "stateMutability": "view",
      "type": "function",
      "constant": true
    },
    {
      "inputs": [
        {
          "internalType": "string",
          "name": "_medical_id",
          "type": "string"
        }
      ],
      "name": "getPatient",
      "outputs": [
        {
          "internalType": "string",
          "name": "",
          "type": "string"
        },
        {
          "internalType": "uint256",
          "name": "",
          "type": "uint256"
        },
        {
          "internalType": "string",
          "name": "",
          "type": "string"
        },
        {
          "internalType": "string",
          "name": "",
          "type": "string"
        },
        {
          "internalType": "string[]",
          "name": "",
          "type": "string[]"
        },
        {
          "internalType": "uint256",
          "name": "",
          "type": "uint256"
        },
        {
          "internalType": "uint256",
          "name": "",
          "type": "uint256"
        }
      ],
      "stateMutability": "view",
      "type": "function",
      "constant": true
    },
    {
      "inputs": [
        {
          "internalType": "string",
          "name": "_Transplant_id",
          "type": "string"
        }
      ],
      "name": "getTransplant",
      "outputs": [
        {
          "internalType": "string",
          "name": "",
          "type": "string"
        },
        {
          "internalType": "string",
          "name": "",
          "type": "string"
        },
        {
          "internalType": "string",
          "name": "",
          "type": "string"
        },
        {
          "internalType": "string",
          "name": "",
          "type": "string"
        },
        {
          "internalType": "string",
          "name": "",
          "type": "string"
        },
        {
          "internalType": "string",
          "name": "",
          "type": "string"
        },
        {
          "internalType": "string[]",
          "name": "",
          "type": "string[]"
        }
      ],
      "stateMutability": "view",
      "type": "function",
      "constant": true
    },
    {
      "inputs": [
        {
          "internalType": "string",
          "name": "_Transplant_id",
          "type": "string"
        }
      ],
      "name": "validateTransplant",
      "outputs": [
        {
          "internalType": "bool",
          "name": "",
          "type": "bool"
        }
      ],
      "stateMutability": "view",
      "type": "function",
      "constant": true
    },
    {
      "inputs": [
        {
          "internalType": "string",
          "name": "_medical_id",
          "type": "string"
        }
      ],
      "name": "validatePledge",
      "outputs": [
        {
          "internalType": "bool",
          "name": "",
          "type": "bool"
        }
      ],
      "stateMutability": "view",
      "type": "function",
      "constant": true
    },
    {
      "inputs": [
        {
          "internalType": "string",
          "name": "_medical_id",
          "type": "string"
        }
      ],
      "name": "validateDonor",
      "outputs": [
        {
          "internalType": "bool",
          "name": "",
          "type": "bool"
        }
      ],
      "stateMutability": "view",
      "type": "function",
      "constant": true
    },
    {
      "inputs": [
        {
          "internalType": "string",
          "name": "_medical_id",
          "type": "string"
        }
      ],
      "name": "validatePatient",
      "outputs": [
        {
          "internalType": "bool",
          "name": "",
          "type": "bool"
        }
      ],
      "stateMutability": "view",
      "type": "function",
      "constant": true
    },
    {
      "inputs": [],
      "name": "getAllPledgeIDs",
      "outputs": [
        {
          "internalType": "string[]",
          "name": "",
          "type": "string[]"
        }
      ],
      "stateMutability": "view",
      "type": "function",
      "constant": true
    },
    {
      "inputs": [],
      "name": "getAllDonorIDs",
      "outputs": [
        {
          "internalType": "string[]",
          "name": "",
          "type": "string[]"
        }
      ],
      "stateMutability": "view",
      "type": "function",
      "constant": true
    },
    {
      "inputs": [],
      "name": "getAllPatientIDs",
      "outputs": [
        {
          "internalType": "string[]",
          "name": "",
          "type": "string[]"
        }
      ],
      "stateMutability": "view",
      "type": "function",
      "constant": true
    },
    {
      "inputs": [],
      "name": "getAllTransplantIDs",
      "outputs": [
        {
          "internalType": "string[]",
          "name": "",
          "type": "string[]"
        }
      ],
      "stateMutability": "view",
      "type": "function",
      "constant": true
    },
    {
      "inputs": [],
      "name": "getCountOfPledges",
      "outputs": [
        {
          "internalType": "uint256",
          "name": "",
          "type": "uint256"
        }
      ],
      "stateMutability": "view",
      "type": "function",
      "constant": true
    },
    {
      "inputs": [],
      "name": "getCountOfDonors",
      "outputs": [
        {
          "internalType": "uint256",
          "name": "",
          "type": "uint256"
        }
      ],
      "stateMutability": "view",
      "type": "function",
      "constant": true
    },
    {
      "inputs": [],
      "name": "getCountOfPatients",
      "outputs": [
        {
          "internalType": "uint256",
          "name": "",
          "type": "uint256"
        }
      ],
      "stateMutability": "view",
      "type": "function",
      "constant": true
    },
    {
      "inputs": [],
      "name": "getCountOfTransplants",
      "outputs": [
        {
          "internalType": "uint256",
          "name": "",
          "type": "uint256"
        }
      ],
      "stateMutability": "view",
      "type": "function",
      "constant": true
    }
  ],
  "bytecode": "0x608060405234801561001057600080fd5b50612eda806100206000396000f3fe608060405234801561001057600080fd5b50600436106101375760003560e01c80639d644dde116100b8578063b5dd29681161007c578063b5dd296814610376578063d0544a8d146103ac578063d0e0579b146103ca578063e79a7a2e146103e6578063ef1215c31461041c578063f3457f841461044c57610137565b80639d644dde146102cc5780639f553a0c146102e8578063afddf1891461031e578063b38856101461033a578063b5d0f0041461035857610137565b80635f6b957d116100ff5780635f6b957d14610212578063778b5f2514610242578063892b3ae31461026057806389d53d001461027e5780639b8112091461029c57610137565b806325ead1951461013c57806331dad7321461015a57806336aa555e146101905780633cc01067146101ac5780634a47bd93146101e2575b600080fd5b61014461046a565b6040516101519190612528565b60405180910390f35b610174600480360381019061016f9190612693565b610543565b604051610187979695949392919061273f565b60405180910390f35b6101aa60048036038101906101a591906128dc565b610821565b005b6101c660048036038101906101c19190612693565b6109ea565b6040516101d99796959493929190612a1e565b60405180910390f35b6101fc60048036038101906101f79190612693565b610dfa565b6040516102099190612ad9565b60405180910390f35b61022c60048036038101906102279190612693565b610e72565b6040516102399190612ad9565b60405180910390f35b61024a610eea565b6040516102579190612528565b60405180910390f35b610268610fc3565b6040516102759190612528565b60405180910390f35b61028661109c565b6040516102939190612af4565b60405180910390f35b6102b660048036038101906102b19190612693565b6110a9565b6040516102c39190612ad9565b60405180910390f35b6102e660048036038101906102e191906128dc565b611121565b005b61030260048036038101906102fd9190612693565b6112ea565b6040516103159796959493929190612b0f565b60405180910390f35b61033860048036038101906103339190612baf565b611768565b005b61034261196a565b60405161034f9190612af4565b60405180910390f35b610360611977565b60405161036d9190612af4565b60405180910390f35b610390600480360381019061038b9190612693565b611984565b6040516103a3979695949392919061273f565b60405180910390f35b6103b4611c61565b6040516103c19190612528565b60405180910390f35b6103e460048036038101906103df91906128dc565b611d3a565b005b61040060048036038101906103fb9190612693565b611f03565b604051610413979695949392919061273f565b60405180910390f35b61043660048036038101906104319190612693565b6121e1565b6040516104439190612ad9565b60405180910390f35b610454612259565b6040516104619190612af4565b60405180910390f35b60606004805480602002602001604051908101604052809291908181526020016000905b8282101561053a5783829060005260206000200180546104ad90612d74565b80601f01602080910402602001604051908101604052809291908181526020018280546104d990612d74565b80156105265780601f106104fb57610100808354040283529160200191610526565b820191906000526020600020905b81548152906001019060200180831161050957829003601f168201915b50505050508152602001906001019061048e565b50505050905090565b60606000606080606060008060006001896040516105619190612de2565b908152602001604051809103902090508060000181600101548260020183600401846005018560060154866007015486805461059c90612d74565b80601f01602080910402602001604051908101604052809291908181526020018280546105c890612d74565b80156106155780601f106105ea57610100808354040283529160200191610615565b820191906000526020600020905b8154815290600101906020018083116105f857829003601f168201915b5050505050965084805461062890612d74565b80601f016020809104026020016040519081016040528092919081815260200182805461065490612d74565b80156106a15780601f10610676576101008083540402835291602001916106a1565b820191906000526020600020905b81548152906001019060200180831161068457829003601f168201915b505050505094508380546106b490612d74565b80601f01602080910402602001604051908101604052809291908181526020018280546106e090612d74565b801561072d5780601f106107025761010080835404028352916020019161072d565b820191906000526020600020905b81548152906001019060200180831161071057829003601f168201915b5050505050935082805480602002602001604051908101604052809291908181526020016000905b8282101561080157838290600052602060002001805461077490612d74565b80601f01602080910402602001604051908101604052809291908181526020018280546107a090612d74565b80156107ed5780601f106107c2576101008083540402835291602001916107ed565b820191906000526020600020905b8154815290600101906020018083116107d057829003601f168201915b505050505081526020019060010190610755565b505050509250975097509750975097509750975050919395979092949650565b846040516020016108329190612de2565b604051602081830303815290604052805190602001206001866040516108589190612de2565b90815260200160405180910390206003016040516020016108799190612e8d565b60405160208183030381529060405280519060200120141561089a57600080fd5b604051806101000160405280898152602001888152602001878152602001868152602001858152602001848152602001838152602001828152506001866040516108e49190612de2565b9081526020016040518091039020600082015181600001908051906020019061090e929190612266565b50602082015181600101556040820151816002019080519060200190610935929190612266565b506060820151816003019080519060200190610952929190612266565b50608082015181600401908051906020019061096f929190612266565b5060a082015181600501908051906020019061098c9291906122ec565b5060c0820151816006015560e082015181600701559050506005859080600181540180825580915050600190039060005260206000200160009091909190915090805190602001906109df929190612266565b505050505050505050565b600381805160208101820180518482526020830160208501208183528095505050505050600091509050806000018054610a2390612d74565b80601f0160208091040260200160405190810160405280929190818152602001828054610a4f90612d74565b8015610a9c5780601f10610a7157610100808354040283529160200191610a9c565b820191906000526020600020905b815481529060010190602001808311610a7f57829003601f168201915b505050505090806001018054610ab190612d74565b80601f0160208091040260200160405190810160405280929190818152602001828054610add90612d74565b8015610b2a5780601f10610aff57610100808354040283529160200191610b2a565b820191906000526020600020905b815481529060010190602001808311610b0d57829003601f168201915b505050505090806002018054610b3f90612d74565b80601f0160208091040260200160405190810160405280929190818152602001828054610b6b90612d74565b8015610bb85780601f10610b8d57610100808354040283529160200191610bb8565b820191906000526020600020905b815481529060010190602001808311610b9b57829003601f168201915b505050505090806003018054610bcd90612d74565b80601f0160208091040260200160405190810160405280929190818152602001828054610bf990612d74565b8015610c465780601f10610c1b57610100808354040283529160200191610c46565b820191906000526020600020905b815481529060010190602001808311610c2957829003601f168201915b505050505090806004018054610c5b90612d74565b80601f0160208091040260200160405190810160405280929190818152602001828054610c8790612d74565b8015610cd45780601f10610ca957610100808354040283529160200191610cd4565b820191906000526020600020905b815481529060010190602001808311610cb757829003601f168201915b505050505090806005018054610ce990612d74565b80601f0160208091040260200160405190810160405280929190818152602001828054610d1590612d74565b8015610d625780601f10610d3757610100808354040283529160200191610d62565b820191906000526020600020905b815481529060010190602001808311610d4557829003601f168201915b505050505090806007018054610d7790612d74565b80601f0160208091040260200160405190810160405280929190818152602001828054610da390612d74565b8015610df05780601f10610dc557610100808354040283529160200191610df0565b820191906000526020600020905b815481529060010190602001808311610dd357829003601f168201915b5050505050905087565b600081604051602001610e0d9190612de2565b60405160208183030381529060405280519060200120600383604051610e339190612de2565b9081526020016040518091039020600701604051602001610e549190612e8d565b60405160208183030381529060405280519060200120149050919050565b600081604051602001610e859190612de2565b60405160208183030381529060405280519060200120600083604051610eab9190612de2565b9081526020016040518091039020600301604051602001610ecc9190612e8d565b60405160208183030381529060405280519060200120149050919050565b60606005805480602002602001604051908101604052809291908181526020016000905b82821015610fba578382906000526020600020018054610f2d90612d74565b80601f0160208091040260200160405190810160405280929190818152602001828054610f5990612d74565b8015610fa65780601f10610f7b57610100808354040283529160200191610fa6565b820191906000526020600020905b815481529060010190602001808311610f8957829003601f168201915b505050505081526020019060010190610f0e565b50505050905090565b60606007805480602002602001604051908101604052809291908181526020016000905b8282101561109357838290600052602060002001805461100690612d74565b80601f016020809104026020016040519081016040528092919081815260200182805461103290612d74565b801561107f5780601f106110545761010080835404028352916020019161107f565b820191906000526020600020905b81548152906001019060200180831161106257829003601f168201915b505050505081526020019060010190610fe7565b50505050905090565b6000600580549050905090565b6000816040516020016110bc9190612de2565b604051602081830303815290604052805190602001206001836040516110e29190612de2565b90815260200160405180910390206003016040516020016111039190612e8d565b60405160208183030381529060405280519060200120149050919050565b846040516020016111329190612de2565b604051602081830303815290604052805190602001206000866040516111589190612de2565b90815260200160405180910390206003016040516020016111799190612e8d565b60405160208183030381529060405280519060200120141561119a57600080fd5b604051806101000160405280898152602001888152602001878152602001868152602001858152602001848152602001838152602001828152506000866040516111e49190612de2565b9081526020016040518091039020600082015181600001908051906020019061120e929190612266565b50602082015181600101556040820151816002019080519060200190611235929190612266565b506060820151816003019080519060200190611252929190612266565b50608082015181600401908051906020019061126f929190612266565b5060a082015181600501908051906020019061128c9291906122ec565b5060c0820151816006015560e082015181600701559050506004859080600181540180825580915050600190039060005260206000200160009091909190915090805190602001906112df929190612266565b505050505050505050565b606080606080606080606060006003896040516113079190612de2565b908152602001604051809103902090508060000181600101826002018360030184600401856005018660060186805461133f90612d74565b80601f016020809104026020016040519081016040528092919081815260200182805461136b90612d74565b80156113b85780601f1061138d576101008083540402835291602001916113b8565b820191906000526020600020905b81548152906001019060200180831161139b57829003601f168201915b505050505096508580546113cb90612d74565b80601f01602080910402602001604051908101604052809291908181526020018280546113f790612d74565b80156114445780601f1061141957610100808354040283529160200191611444565b820191906000526020600020905b81548152906001019060200180831161142757829003601f168201915b5050505050955084805461145790612d74565b80601f016020809104026020016040519081016040528092919081815260200182805461148390612d74565b80156114d05780601f106114a5576101008083540402835291602001916114d0565b820191906000526020600020905b8154815290600101906020018083116114b357829003601f168201915b505050505094508380546114e390612d74565b80601f016020809104026020016040519081016040528092919081815260200182805461150f90612d74565b801561155c5780601f106115315761010080835404028352916020019161155c565b820191906000526020600020905b81548152906001019060200180831161153f57829003601f168201915b5050505050935082805461156f90612d74565b80601f016020809104026020016040519081016040528092919081815260200182805461159b90612d74565b80156115e85780601f106115bd576101008083540402835291602001916115e8565b820191906000526020600020905b8154815290600101906020018083116115cb57829003601f168201915b505050505092508180546115fb90612d74565b80601f016020809104026020016040519081016040528092919081815260200182805461162790612d74565b80156116745780601f1061164957610100808354040283529160200191611674565b820191906000526020600020905b81548152906001019060200180831161165757829003601f168201915b5050505050915080805480602002602001604051908101604052809291908181526020016000905b828210156117485783829060005260206000200180546116bb90612d74565b80601f01602080910402602001604051908101604052809291908181526020018280546116e790612d74565b80156117345780601f1061170957610100808354040283529160200191611734565b820191906000526020600020905b81548152906001019060200180831161171757829003601f168201915b50505050508152602001906001019061169c565b505050509050975097509750975097509750975050919395979092949650565b806040516020016117799190612de2565b6040516020818303038152906040528051906020012060038260405161179f9190612de2565b90815260200160405180910390206007016040516020016117c09190612e8d565b6040516020818303038152906040528051906020012014156117e157600080fd5b6040518061010001604052808981526020018881526020018781526020018681526020018581526020018481526020018381526020018281525060038260405161182b9190612de2565b90815260200160405180910390206000820151816000019080519060200190611855929190612266565b506020820151816001019080519060200190611872929190612266565b50604082015181600201908051906020019061188f929190612266565b5060608201518160030190805190602001906118ac929190612266565b5060808201518160040190805190602001906118c9929190612266565b5060a08201518160050190805190602001906118e6929190612266565b5060c08201518160060190805190602001906119039291906122ec565b5060e0820151816007019080519060200190611920929190612266565b5090505060078190806001815401808255809150506001900390600052602060002001600090919091909150908051906020019061195f929190612266565b505050505050505050565b6000600680549050905090565b6000600480549050905090565b606060006060806060600080600080896040516119a19190612de2565b90815260200160405180910390209050806000018160010154826002018360040184600501856006015486600701548680546119dc90612d74565b80601f0160208091040260200160405190810160405280929190818152602001828054611a0890612d74565b8015611a555780601f10611a2a57610100808354040283529160200191611a55565b820191906000526020600020905b815481529060010190602001808311611a3857829003601f168201915b50505050509650848054611a6890612d74565b80601f0160208091040260200160405190810160405280929190818152602001828054611a9490612d74565b8015611ae15780601f10611ab657610100808354040283529160200191611ae1565b820191906000526020600020905b815481529060010190602001808311611ac457829003601f168201915b50505050509450838054611af490612d74565b80601f0160208091040260200160405190810160405280929190818152602001828054611b2090612d74565b8015611b6d5780601f10611b4257610100808354040283529160200191611b6d565b820191906000526020600020905b815481529060010190602001808311611b5057829003601f168201915b5050505050935082805480602002602001604051908101604052809291908181526020016000905b82821015611c41578382906000526020600020018054611bb490612d74565b80601f0160208091040260200160405190810160405280929190818152602001828054611be090612d74565b8015611c2d5780601f10611c0257610100808354040283529160200191611c2d565b820191906000526020600020905b815481529060010190602001808311611c1057829003601f168201915b505050505081526020019060010190611b95565b505050509250975097509750975097509750975050919395979092949650565b60606006805480602002602001604051908101604052809291908181526020016000905b82821015611d31578382906000526020600020018054611ca490612d74565b80601f0160208091040260200160405190810160405280929190818152602001828054611cd090612d74565b8015611d1d5780601f10611cf257610100808354040283529160200191611d1d565b820191906000526020600020905b815481529060010190602001808311611d0057829003601f168201915b505050505081526020019060010190611c85565b50505050905090565b84604051602001611d4b9190612de2565b60405160208183030381529060405280519060200120600286604051611d719190612de2565b9081526020016040518091039020600301604051602001611d929190612e8d565b604051602081830303815290604052805190602001201415611db357600080fd5b60405180610100016040528089815260200188815260200187815260200186815260200185815260200184815260200183815260200182815250600286604051611dfd9190612de2565b90815260200160405180910390206000820151816000019080519060200190611e27929190612266565b50602082015181600101556040820151816002019080519060200190611e4e929190612266565b506060820151816003019080519060200190611e6b929190612266565b506080820151816004019080519060200190611e88929190612266565b5060a0820151816005019080519060200190611ea59291906122ec565b5060c0820151816006015560e08201518160070155905050600685908060018154018082558091505060019003906000526020600020016000909190919091509080519060200190611ef8929190612266565b505050505050505050565b6060600060608060606000806000600289604051611f219190612de2565b9081526020016040518091039020905080600001816001015482600201836004018460050185600601548660070154868054611f5c90612d74565b80601f0160208091040260200160405190810160405280929190818152602001828054611f8890612d74565b8015611fd55780601f10611faa57610100808354040283529160200191611fd5565b820191906000526020600020905b815481529060010190602001808311611fb857829003601f168201915b50505050509650848054611fe890612d74565b80601f016020809104026020016040519081016040528092919081815260200182805461201490612d74565b80156120615780601f1061203657610100808354040283529160200191612061565b820191906000526020600020905b81548152906001019060200180831161204457829003601f168201915b5050505050945083805461207490612d74565b80601f01602080910402602001604051908101604052809291908181526020018280546120a090612d74565b80156120ed5780601f106120c2576101008083540402835291602001916120ed565b820191906000526020600020905b8154815290600101906020018083116120d057829003601f168201915b5050505050935082805480602002602001604051908101604052809291908181526020016000905b828210156121c157838290600052602060002001805461213490612d74565b80601f016020809104026020016040519081016040528092919081815260200182805461216090612d74565b80156121ad5780601f10612182576101008083540402835291602001916121ad565b820191906000526020600020905b81548152906001019060200180831161219057829003601f168201915b505050505081526020019060010190612115565b505050509250975097509750975097509750975050919395979092949650565b6000816040516020016121f49190612de2565b6040516020818303038152906040528051906020012060028360405161221a9190612de2565b908152602001604051809103902060030160405160200161223b9190612e8d565b60405160208183030381529060405280519060200120149050919050565b6000600780549050905090565b82805461227290612d74565b90600052602060002090601f01602090048101928261229457600085556122db565b82601f106122ad57805160ff19168380011785556122db565b828001600101855582156122db579182015b828111156122da5782518255916020019190600101906122bf565b5b5090506122e8919061234c565b5090565b82805482825590600052602060002090810192821561233b579160200282015b8281111561233a57825182908051906020019061232a929190612266565b509160200191906001019061230c565b5b5090506123489190612369565b5090565b5b8082111561236557600081600090555060010161234d565b5090565b5b808211156123895760008181612380919061238d565b5060010161236a565b5090565b50805461239990612d74565b6000825580601f106123ab57506123ca565b601f0160209004906000526020600020908101906123c9919061234c565b5b50565b600081519050919050565b600082825260208201905092915050565b6000819050602082019050919050565b600081519050919050565b600082825260208201905092915050565b60005b83811015612433578082015181840152602081019050612418565b83811115612442576000848401525b50505050565b6000601f19601f8301169050919050565b6000612464826123f9565b61246e8185612404565b935061247e818560208601612415565b61248781612448565b840191505092915050565b600061249e8383612459565b905092915050565b6000602082019050919050565b60006124be826123cd565b6124c881856123d8565b9350836020820285016124da856123e9565b8060005b8581101561251657848403895281516124f78582612492565b9450612502836124a6565b925060208a019950506001810190506124de565b50829750879550505050505092915050565b6000602082019050818103600083015261254281846124b3565b905092915050565b6000604051905090565b600080fd5b600080fd5b600080fd5b600080fd5b7f4e487b7100000000000000000000000000000000000000000000000000000000600052604160045260246000fd5b6125a082612448565b810181811067ffffffffffffffff821117156125bf576125be612568565b5b80604052505050565b60006125d261254a565b90506125de8282612597565b919050565b600067ffffffffffffffff8211156125fe576125fd612568565b5b61260782612448565b9050602081019050919050565b82818337600083830152505050565b6000612636612631846125e3565b6125c8565b90508281526020810184848401111561265257612651612563565b5b61265d848285612614565b509392505050565b600082601f83011261267a5761267961255e565b5b813561268a848260208601612623565b91505092915050565b6000602082840312156126a9576126a8612554565b5b600082013567ffffffffffffffff8111156126c7576126c6612559565b5b6126d384828501612665565b91505092915050565b600082825260208201905092915050565b60006126f8826123f9565b61270281856126dc565b9350612712818560208601612415565b61271b81612448565b840191505092915050565b6000819050919050565b61273981612726565b82525050565b600060e0820190508181036000830152612759818a6126ed565b90506127686020830189612730565b818103604083015261277a81886126ed565b9050818103606083015261278e81876126ed565b905081810360808301526127a281866124b3565b90506127b160a0830185612730565b6127be60c0830184612730565b98975050505050505050565b6127d381612726565b81146127de57600080fd5b50565b6000813590506127f0816127ca565b92915050565b600067ffffffffffffffff82111561281157612810612568565b5b602082029050602081019050919050565b600080fd5b600061283a612835846127f6565b6125c8565b9050808382526020820190506020840283018581111561285d5761285c612822565b5b835b818110156128a457803567ffffffffffffffff8111156128825761288161255e565b5b80860161288f8982612665565b8552602085019450505060208101905061285f565b5050509392505050565b600082601f8301126128c3576128c261255e565b5b81356128d3848260208601612827565b91505092915050565b600080600080600080600080610100898b0312156128fd576128fc612554565b5b600089013567ffffffffffffffff81111561291b5761291a612559565b5b6129278b828c01612665565b98505060206129388b828c016127e1565b975050604089013567ffffffffffffffff81111561295957612958612559565b5b6129658b828c01612665565b965050606089013567ffffffffffffffff81111561298657612985612559565b5b6129928b828c01612665565b955050608089013567ffffffffffffffff8111156129b3576129b2612559565b5b6129bf8b828c01612665565b94505060a089013567ffffffffffffffff8111156129e0576129df612559565b5b6129ec8b828c016128ae565b93505060c06129fd8b828c016127e1565b92505060e0612a0e8b828c016127e1565b9150509295985092959890939650565b600060e0820190508181036000830152612a38818a6126ed565b90508181036020830152612a4c81896126ed565b90508181036040830152612a6081886126ed565b90508181036060830152612a7481876126ed565b90508181036080830152612a8881866126ed565b905081810360a0830152612a9c81856126ed565b905081810360c0830152612ab081846126ed565b905098975050505050505050565b60008115159050919050565b612ad381612abe565b82525050565b6000602082019050612aee6000830184612aca565b92915050565b6000602082019050612b096000830184612730565b92915050565b600060e0820190508181036000830152612b29818a6126ed565b90508181036020830152612b3d81896126ed565b90508181036040830152612b5181886126ed565b90508181036060830152612b6581876126ed565b90508181036080830152612b7981866126ed565b905081810360a0830152612b8d81856126ed565b905081810360c0830152612ba181846124b3565b905098975050505050505050565b600080600080600080600080610100898b031215612bd057612bcf612554565b5b600089013567ffffffffffffffff811115612bee57612bed612559565b5b612bfa8b828c01612665565b985050602089013567ffffffffffffffff811115612c1b57612c1a612559565b5b612c278b828c01612665565b975050604089013567ffffffffffffffff811115612c4857612c47612559565b5b612c548b828c01612665565b965050606089013567ffffffffffffffff811115612c7557612c74612559565b5b612c818b828c01612665565b955050608089013567ffffffffffffffff811115612ca257612ca1612559565b5b612cae8b828c01612665565b94505060a089013567ffffffffffffffff811115612ccf57612cce612559565b5b612cdb8b828c01612665565b93505060c089013567ffffffffffffffff811115612cfc57612cfb612559565b5b612d088b828c016128ae565b92505060e089013567ffffffffffffffff811115612d2957612d28612559565b5b612d358b828c01612665565b9150509295985092959890939650565b7f4e487b7100000000000000000000000000000000000000000000000000000000600052602260045260246000fd5b60006002820490506001821680612d8c57607f821691505b60208210811415612da057612d9f612d45565b5b50919050565b600081905092915050565b6000612dbc826123f9565b612dc68185612da6565b9350612dd6818560208601612415565b80840191505092915050565b6000612dee8284612db1565b915081905092915050565b60008190508160005260206000209050919050565b60008154612e1b81612d74565b612e258186612da6565b94506001821660008114612e405760018114612e5157612e84565b60ff19831686528186019350612e84565b612e5a85612df9565b60005b83811015612e7c57815481890152600182019150602081019050612e5d565b838801955050505b50505092915050565b6000612e998284612e0e565b91508190509291505056fea26469706673582212209371bd6292436ea4b2bf2cd38ddda7f8f936b62f2a1fd3af2ddc97dc4e91083964736f6c634300080a0033",
  "immutableReferences": {},
  "source": "// SPDX-License-Identifier: MIT\npragma solidity ^0.8.10;\n\ncontract DonorContract {\n\n    struct pledged {\n        string fullname;\n        uint age;\n        string gender;\n        string medical_id;\n        string blood_type;\n        string[] organ;\n        uint weight;\n        uint height;\n    }\n\n    struct donor {\n        string fullname;\n        uint age;\n        string gender;\n        string medical_id;\n        string blood_type;\n        string[] organ;\n        uint weight;\n        uint height;\n    }\n\n    struct patient {\n        string fullname;\n        uint age;\n        string gender;\n        string medical_id;\n        string blood_type;\n        string[] organ;\n        uint weight;\n        uint height;\n    }\n\n    struct tmatch {\n        string D_name;\n        string P_name;\n        string D_medical_id;\n        string P_medical_id;\n        string D_blood_type;\n        string P_blood_type;\n        string[] organ;\n        string Transplant_id;\n    }\n\n    mapping(string => pledged) pledgedMap;\n    mapping(string => donor) donorMap;\n    mapping(string => patient) patientMap;\n    mapping(string => tmatch) public transplantMap;\n\n    string[] PledgedArray;\n    string[] DonorsArray;\n    string[] PatientsArray;\n    string[] TransplantArray;\n\n    function setPledge(string memory _fullname, uint _age, string memory _gender, string memory _medical_id,\n                       string memory _blood_type, string[] memory _organ, uint _weight, uint _height)\n    public {\n        require(keccak256(abi.encodePacked((pledgedMap[_medical_id].medical_id))) != keccak256(abi.encodePacked(_medical_id)));\n        pledgedMap[_medical_id] = pledged({\n            fullname: _fullname,\n            age: _age,\n            gender: _gender,\n            medical_id: _medical_id,\n            blood_type: _blood_type,\n            organ: _organ,\n            weight: _weight,\n            height: _height\n        });\n\n        PledgedArray.push(_medical_id);\n    }\n\n    function setDonors(string memory _fullname, uint _age, string memory _gender, string memory _medical_id,\n                       string memory _blood_type, string[] memory _organ, uint _weight, uint _height)\n    public {\n        require(keccak256(abi.encodePacked((donorMap[_medical_id].medical_id))) != keccak256(abi.encodePacked(_medical_id)));\n        donorMap[_medical_id] = donor({\n            fullname: _fullname,\n            age: _age,\n            gender: _gender,\n            medical_id: _medical_id,\n            blood_type: _blood_type,\n            organ: _organ,\n            weight: _weight,\n            height: _height\n        });\n\n        DonorsArray.push(_medical_id);\n    }\n\n    function setPatients(string memory _fullname, uint _age, string memory _gender, string memory _medical_id,\n                       string memory _blood_type, string[] memory _organ, uint _weight, uint _height)\n    public {\n        require(keccak256(abi.encodePacked((patientMap[_medical_id].medical_id))) != keccak256(abi.encodePacked(_medical_id)));\n        patientMap[_medical_id] = patient({\n            fullname: _fullname,\n            age: _age,\n            gender: _gender,\n            medical_id: _medical_id,\n            blood_type: _blood_type,\n            organ: _organ,\n            weight: _weight,\n            height: _height\n        });\n\n        PatientsArray.push(_medical_id);\n    }\n\n    function setTransplant(\n        string memory _D_name, string memory _P_name, string memory _D_medical_id, string memory _P_medical_id, string memory _D_blood_type, string memory _P_blood_type, string[] memory _organ, string memory _Transplant_id )\n         public {\n        require(keccak256(abi.encodePacked((transplantMap[_Transplant_id].Transplant_id))) != keccak256(abi.encodePacked(_Transplant_id)));\n\n        transplantMap[_Transplant_id] = tmatch({\n            D_name: _D_name,\n            P_name: _P_name,\n            D_medical_id: _D_medical_id,\n            P_medical_id: _P_medical_id,\n            D_blood_type: _D_blood_type,\n            P_blood_type: _P_blood_type,\n            organ: _organ,\n            Transplant_id: _Transplant_id\n        });\n\n        TransplantArray.push(_Transplant_id);\n    }\n\n    function getPledge(string memory _medical_id) view public returns(string memory, uint, string memory, string memory, string[] memory, uint, uint) {\n        pledged storage p = pledgedMap[_medical_id];\n        return (p.fullname, p.age, p.gender, p.blood_type, p.organ, p.weight, p.height);\n    }\n\n    function getDonor(string memory _medical_id) view public returns(string memory, uint, string memory, string memory, string[] memory, uint, uint) {\n        donor storage d = donorMap[_medical_id];\n        return (d.fullname, d.age, d.gender, d.blood_type, d.organ, d.weight, d.height);\n    }\n\n    function getPatient(string memory _medical_id) view public returns(string memory, uint, string memory, string memory, string[] memory, uint, uint) {\n        patient storage p = patientMap[_medical_id];\n        return (p.fullname, p.age, p.gender, p.blood_type, p.organ, p.weight, p.height);\n    }\n\n    function getTransplant(string memory _Transplant_id) view public returns(string memory, string memory, string memory, string memory, string memory, string memory, string[] memory) {\n        tmatch storage t = transplantMap[_Transplant_id];\n        return (t.D_name, t.P_name, t.D_medical_id, t.P_medical_id, t.D_blood_type, t.P_blood_type, t.organ);\n    }\n\n    function validateTransplant(string memory _Transplant_id) view public returns(bool) {\n        return keccak256(abi.encodePacked((transplantMap[_Transplant_id].Transplant_id))) == keccak256(abi.encodePacked(_Transplant_id));\n    }\n\n    function validatePledge(string memory _medical_id) view public returns(bool) {\n        return keccak256(abi.encodePacked((pledgedMap[_medical_id].medical_id))) == keccak256(abi.encodePacked(_medical_id));\n    }\n\n    function validateDonor(string memory _medical_id) view public returns(bool) {\n        return keccak256(abi.encodePacked((donorMap[_medical_id].medical_id))) == keccak256(abi.encodePacked(_medical_id));\n    }\n\n    function validatePatient(string memory _medical_id) view public returns(bool) {\n        return keccak256(abi.encodePacked((patientMap[_medical_id].medical_id))) == keccak256(abi.encodePacked(_medical_id));\n    }\n\n    function getAllPledgeIDs() view public returns(string[] memory) {\n        return PledgedArray;\n    }\n\n    function getAllDonorIDs() view public returns(string[] memory) {\n        return DonorsArray;\n    }\n\n    function getAllPatientIDs() view public returns(string[] memory) {\n        return PatientsArray;\n    }\n\n    function getAllTransplantIDs() view public returns(string[] memory) {\n        return TransplantArray;\n    }\n\n    function getCountOfPledges() view public returns (uint) {\n        return PledgedArray.length;\n    }\n\n    function getCountOfDonors() view public returns (uint) {\n        return DonorsArray.length;\n    }\n\n    function getCountOfPatients() view public returns (uint) {\n        return PatientsArray.length;\n    }\n\n    function getCountOfTransplants() view public returns (uint) {\n        return TransplantArray.length;\n    }\n}\n",
  "sourcePath": "C:\\Users\\Sanket\\Desktop\\new_attempt - Copy\\organ-donation-platform-main\\contracts\\DonorContract.sol",
  "compiler": {
    "name": "solc",
    "version": "0.8.10+commit.fc410830.Emscripten.clang"
  },
  "schemaVersion": "3.4.16",
  "updatedAt": "2024-05-29T12:53:55.587Z",
  "networkType": "ethereum",
  "devdoc": {
    "kind": "dev",
    "methods": {},
    "version": 1
  },
  "userdoc": {
    "kind": "user",
    "methods": {},
    "version": 1
  }
}